{
  "_format": "hh-sol-artifact-1",
  "contractName": "GoatVoter",
  "sourceName": "contracts/GoatVoter.sol",
  "abi": [
    {
      "inputs": [],
      "stateMutability": "nonpayable",
      "type": "constructor"
    },
    {
      "inputs": [
        {
          "internalType": "address",
          "name": "_member",
          "type": "address"
        }
      ],
      "name": "addMember",
      "outputs": [],
      "stateMutability": "nonpayable",
      "type": "function"
    },
    {
      "inputs": [],
      "name": "castFinalVote",
      "outputs": [],
      "stateMutability": "nonpayable",
      "type": "function"
    },
    {
      "inputs": [
        {
          "internalType": "address",
          "name": "_member",
          "type": "address"
        }
      ],
      "name": "checkMember",
      "outputs": [
        {
          "internalType": "bool",
          "name": "",
          "type": "bool"
        }
      ],
      "stateMutability": "nonpayable",
      "type": "function"
    },
    {
      "inputs": [],
      "name": "fooTest",
      "outputs": [],
      "stateMutability": "nonpayable",
      "type": "function"
    },
    {
      "inputs": [],
      "name": "getInterchainAccount",
      "outputs": [],
      "stateMutability": "view",
      "type": "function"
    },
    {
      "inputs": [],
      "name": "makerTest",
      "outputs": [],
      "stateMutability": "nonpayable",
      "type": "function"
    },
    {
      "inputs": [
        {
          "internalType": "address",
          "name": "",
          "type": "address"
        }
      ],
      "name": "members",
      "outputs": [
        {
          "internalType": "bool",
          "name": "",
          "type": "bool"
        }
      ],
      "stateMutability": "view",
      "type": "function"
    },
    {
      "inputs": [],
      "name": "owner",
      "outputs": [
        {
          "internalType": "address",
          "name": "",
          "type": "address"
        }
      ],
      "stateMutability": "view",
      "type": "function"
    },
    {
      "inputs": [
        {
          "internalType": "uint256",
          "name": "",
          "type": "uint256"
        },
        {
          "internalType": "uint256",
          "name": "",
          "type": "uint256"
        }
      ],
      "name": "proposalDates",
      "outputs": [
        {
          "internalType": "uint256",
          "name": "",
          "type": "uint256"
        }
      ],
      "stateMutability": "view",
      "type": "function"
    },
    {
      "inputs": [
        {
          "internalType": "uint256",
          "name": "",
          "type": "uint256"
        }
      ],
      "name": "proposals",
      "outputs": [
        {
          "internalType": "uint256",
          "name": "platform",
          "type": "uint256"
        },
        {
          "internalType": "uint256",
          "name": "yea",
          "type": "uint256"
        },
        {
          "internalType": "uint256",
          "name": "nay",
          "type": "uint256"
        }
      ],
      "stateMutability": "view",
      "type": "function"
    },
    {
      "inputs": [
        {
          "internalType": "address",
          "name": "_member",
          "type": "address"
        }
      ],
      "name": "removeMember",
      "outputs": [],
      "stateMutability": "nonpayable",
      "type": "function"
    },
    {
      "inputs": [
        {
          "internalType": "uint256",
          "name": "_proposalId",
          "type": "uint256"
        },
        {
          "internalType": "uint256",
          "name": "_platform",
          "type": "uint256"
        },
        {
          "internalType": "address",
          "name": "_member",
          "type": "address"
        },
        {
          "internalType": "bool",
          "name": "_vote",
          "type": "bool"
        },
        {
          "internalType": "uint256",
          "name": "_duedate",
          "type": "uint256"
        }
      ],
      "name": "submitMemberVote",
      "outputs": [],
      "stateMutability": "nonpayable",
      "type": "function"
    }
  ],
  "bytecode": "0x608060405234801561001057600080fd5b50336000806101000a81548173ffffffffffffffffffffffffffffffffffffffff021916908373ffffffffffffffffffffffffffffffffffffffff160217905550611edc806100606000396000f3fe608060405234801561001057600080fd5b50600436106100b45760003560e01c80638da5cb5b116100715780638da5cb5b1461017b578063aaf2e5d814610199578063b5cb9771146101c9578063ca6d56dc146101d3578063e546efbb146101ef578063f0c111a2146101f9576100b4565b8063013cf08b146100b957806308ae4b0c146100eb5780630aba9e3d1461011b5780630b1ca49a14610125578063597268b1146101415780638c0e32681461014b575b600080fd5b6100d360048036038101906100ce919061146e565b610215565b6040516100e2939291906114aa565b60405180910390f35b6101056004803603810190610100919061153f565b61023f565b6040516101129190611587565b60405180910390f35b61012361025f565b005b61013f600480360381019061013a919061153f565b6104f3565b005b6101496105dc565b005b610165600480360381019061016091906115a2565b61065f565b60405161017291906115e2565b60405180910390f35b610183610690565b604051610190919061160c565b60405180910390f35b6101b360048036038101906101ae919061153f565b6106b4565b6040516101c09190611587565b60405180910390f35b6101d161070a565b005b6101ed60048036038101906101e8919061153f565b610e13565b005b6101f7610efb565b005b610213600480360381019061020e9190611653565b611191565b005b60036020528060005260406000206000915090508060000154908060020154908060030154905083565b60016020528060005260406000206000915054906101000a900460ff1681565b60008054906101000a900473ffffffffffffffffffffffffffffffffffffffff1673ffffffffffffffffffffffffffffffffffffffff163373ffffffffffffffffffffffffffffffffffffffff16146102ed576040517f08c379a00000000000000000000000000000000000000000000000000000000081526004016102e49061172b565b60405180910390fd5b6000600167ffffffffffffffff81111561030a5761030961174b565b5b60405190808252806020026020018201604052801561034357816020015b610330611403565b8152602001906001900390816103285790505b509050604051806040016040528073bc3cfeca7df5a45d61bc60e7898e63670e1654ae73ffffffffffffffffffffffffffffffffffffffff16815260200161091d604051602401610394919061180b565b60405160208183030381529060405263f07c1f4760e01b6020820180517bffffffffffffffffffffffffffffffffffffffffffffffffffffffff8381831617835250505050815250816000815181106103f0576103ef611839565b5b6020026020010181905250600073ffd17672d47e7bb6192d5dbc12a096e00d1a206f90508073ffffffffffffffffffffffffffffffffffffffff1663f6aa16406101a4306040518363ffffffff1660e01b8152600401610451929190611887565b60006040518083038186803b15801561046957600080fd5b505afa15801561047d573d6000803e3d6000fd5b505050508073ffffffffffffffffffffffffffffffffffffffff1663169a1d726005846040518363ffffffff1660e01b81526004016104bd929190611a4e565b600060405180830381600087803b1580156104d757600080fd5b505af11580156104eb573d6000803e3d6000fd5b505050505050565b60008054906101000a900473ffffffffffffffffffffffffffffffffffffffff1673ffffffffffffffffffffffffffffffffffffffff163373ffffffffffffffffffffffffffffffffffffffff1614610581576040517f08c379a00000000000000000000000000000000000000000000000000000000081526004016105789061172b565b60405180910390fd5b6000600160008373ffffffffffffffffffffffffffffffffffffffff1673ffffffffffffffffffffffffffffffffffffffff16815260200190815260200160002060006101000a81548160ff02191690831515021790555050565b73ffd17672d47e7bb6192d5dbc12a096e00d1a206f73ffffffffffffffffffffffffffffffffffffffff1663f6aa16406101a4306040518363ffffffff1660e01b815260040161062d929190611887565b60006040518083038186803b15801561064557600080fd5b505afa158015610659573d6000803e3d6000fd5b50505050565b6002602052816000526040600020818154811061067b57600080fd5b90600052602060002001600091509150505481565b60008054906101000a900473ffffffffffffffffffffffffffffffffffffffff1681565b6000600160008373ffffffffffffffffffffffffffffffffffffffff1673ffffffffffffffffffffffffffffffffffffffff16815260200190815260200160002060009054906101000a900460ff169050919050565b600042905060006002600083815260200190815260200160002080548060200260200160405190810160405280929190818152602001828054801561076e57602002820191906000526020600020905b81548152602001906001019080831161075a575b505050505090506000815167ffffffffffffffff8111156107925761079161174b565b5b6040519080825280602002602001820160405280156107cb57816020015b6107b8611403565b8152602001906001900390816107b05790505b509050600073ffd17672d47e7bb6192d5dbc12a096e00d1a206f90508073ffffffffffffffffffffffffffffffffffffffff1663f6aa16406101a4306040518363ffffffff1660e01b8152600401610824929190611887565b60006040518083038186803b15801561083c57600080fd5b505afa158015610850573d6000803e3d6000fd5b5050505060005b83518111610d9e57600084828151811061087457610873611839565b5b602002602001015190506000600360008381526020019081526020016000209050806003015481600201541115610afa57600081600001540361096b57604051806040016040528073408ed6354d4973f66138c91495f2f2fcbd8724c373ffffffffffffffffffffffffffffffffffffffff168152602001836001604051602401610900929190611ac6565b604051602081830303815290604052635678138860e01b6020820180517bffffffffffffffffffffffffffffffffffffffffffffffffffffffff838183161783525050505081525085848151811061095b5761095a611839565b5b6020026020010181905250610af5565b6001816000015403610a3157604051806040016040528073dbe5d00b2d8c13a77fb03ee50c87317dbc1b15fb73ffffffffffffffffffffffffffffffffffffffff1681526020018360016040516024016109c6929190611b20565b60405160208183030381529060405263b384abef60e01b6020820180517bffffffffffffffffffffffffffffffffffffffffffffffffffffffff8381831617835250505050815250858481518110610a2157610a20611839565b5b6020026020010181905250610af4565b6002816000015403610af357604051806040016040528073c0da02939e1441f497fd74f78ce7decb17b6652973ffffffffffffffffffffffffffffffffffffffff168152602001836001604051602401610a8c929190611ac6565b604051602081830303815290604052635678138860e01b6020820180517bffffffffffffffffffffffffffffffffffffffffffffffffffffffff8381831617835250505050815250858481518110610ae757610ae6611839565b5b60200260200101819052505b5b5b610d5b565b8060030154816002015411610d5a576000816000015403610bcf57604051806040016040528073408ed6354d4973f66138c91495f2f2fcbd8724c373ffffffffffffffffffffffffffffffffffffffff168152602001836000604051602401610b64929190611b84565b604051602081830303815290604052635678138860e01b6020820180517bffffffffffffffffffffffffffffffffffffffffffffffffffffffff8381831617835250505050815250858481518110610bbf57610bbe611839565b5b6020026020010181905250610d59565b6001816000015403610c9557604051806040016040528073dbe5d00b2d8c13a77fb03ee50c87317dbc1b15fb73ffffffffffffffffffffffffffffffffffffffff168152602001836000604051602401610c2a929190611bde565b60405160208183030381529060405263b384abef60e01b6020820180517bffffffffffffffffffffffffffffffffffffffffffffffffffffffff8381831617835250505050815250858481518110610c8557610c84611839565b5b6020026020010181905250610d58565b6002816000015403610d5757604051806040016040528073c0da02939e1441f497fd74f78ce7decb17b6652973ffffffffffffffffffffffffffffffffffffffff168152602001836000604051602401610cf0929190611b84565b604051602081830303815290604052635678138860e01b6020820180517bffffffffffffffffffffffffffffffffffffffffffffffffffffffff8381831617835250505050815250858481518110610d4b57610d4a611839565b5b60200260200101819052505b5b5b5b5b6003600083815260200190815260200160002060008082016000905560028201600090556003820160009055505050508080610d9690611c36565b915050610857565b508073ffffffffffffffffffffffffffffffffffffffff1663169a1d726005846040518363ffffffff1660e01b8152600401610ddb929190611a4e565b600060405180830381600087803b158015610df557600080fd5b505af1158015610e09573d6000803e3d6000fd5b5050505050505050565b60008054906101000a900473ffffffffffffffffffffffffffffffffffffffff1673ffffffffffffffffffffffffffffffffffffffff163373ffffffffffffffffffffffffffffffffffffffff1614610ea1576040517f08c379a0000000000000000000000000000000000000000000000000000000008152600401610e989061172b565b60405180910390fd5b60018060008373ffffffffffffffffffffffffffffffffffffffff1673ffffffffffffffffffffffffffffffffffffffff16815260200190815260200160002060006101000a81548160ff02191690831515021790555050565b60008054906101000a900473ffffffffffffffffffffffffffffffffffffffff1673ffffffffffffffffffffffffffffffffffffffff163373ffffffffffffffffffffffffffffffffffffffff1614610f89576040517f08c379a0000000000000000000000000000000000000000000000000000000008152600401610f809061172b565b60405180910390fd5b6000600167ffffffffffffffff811115610fa657610fa561174b565b5b604051908082528060200260200182016040528015610fdf57816020015b610fcc611403565b815260200190600190039081610fc45790505b509050604051806040016040528073dbe5d00b2d8c13a77fb03ee50c87317dbc1b15fb73ffffffffffffffffffffffffffffffffffffffff168152602001601e6001604051602401611032929190611cb9565b60405160208183030381529060405263b384abef60e01b6020820180517bffffffffffffffffffffffffffffffffffffffffffffffffffffffff83818316178352505050508152508160008151811061108e5761108d611839565b5b6020026020010181905250600073ffd17672d47e7bb6192d5dbc12a096e00d1a206f90508073ffffffffffffffffffffffffffffffffffffffff1663f6aa16406101a4306040518363ffffffff1660e01b81526004016110ef929190611887565b60006040518083038186803b15801561110757600080fd5b505afa15801561111b573d6000803e3d6000fd5b505050508073ffffffffffffffffffffffffffffffffffffffff1663169a1d726005846040518363ffffffff1660e01b815260040161115b929190611a4e565b600060405180830381600087803b15801561117557600080fd5b505af1158015611189573d6000803e3d6000fd5b505050505050565b600160008473ffffffffffffffffffffffffffffffffffffffff1673ffffffffffffffffffffffffffffffffffffffff16815260200190815260200160002060009054906101000a900460ff1661121d576040517f08c379a000000000000000000000000000000000000000000000000000000000815260040161121490611d54565b60405180910390fd5b42811061125f576040517f08c379a000000000000000000000000000000000000000000000000000000000815260040161125690611de6565b60405180910390fd5b6000600360008781526020019081526020016000209050600015158160010160008673ffffffffffffffffffffffffffffffffffffffff1673ffffffffffffffffffffffffffffffffffffffff16815260200190815260200160002060009054906101000a900460ff1615151461130b576040517f08c379a000000000000000000000000000000000000000000000000000000000815260040161130290611e52565b60405180910390fd5b6000816003015482600201546113219190611e72565b0361136157600260008381526020019081526020016000208690806001815401808255809150506001900390600052602060002001600090919091909150555b60018160010160008673ffffffffffffffffffffffffffffffffffffffff1673ffffffffffffffffffffffffffffffffffffffff16815260200190815260200160002060006101000a81548160ff02191690831515021790555082156113e0578060020160008154809291906113d690611c36565b91905055506113fb565b8060030160008154809291906113f590611c36565b91905055505b505050505050565b6040518060400160405280600073ffffffffffffffffffffffffffffffffffffffff168152602001606081525090565b600080fd5b6000819050919050565b61144b81611438565b811461145657600080fd5b50565b60008135905061146881611442565b92915050565b60006020828403121561148457611483611433565b5b600061149284828501611459565b91505092915050565b6114a481611438565b82525050565b60006060820190506114bf600083018661149b565b6114cc602083018561149b565b6114d9604083018461149b565b949350505050565b600073ffffffffffffffffffffffffffffffffffffffff82169050919050565b600061150c826114e1565b9050919050565b61151c81611501565b811461152757600080fd5b50565b60008135905061153981611513565b92915050565b60006020828403121561155557611554611433565b5b60006115638482850161152a565b91505092915050565b60008115159050919050565b6115818161156c565b82525050565b600060208201905061159c6000830184611578565b92915050565b600080604083850312156115b9576115b8611433565b5b60006115c785828601611459565b92505060206115d885828601611459565b9150509250929050565b60006020820190506115f7600083018461149b565b92915050565b61160681611501565b82525050565b600060208201905061162160008301846115fd565b92915050565b6116308161156c565b811461163b57600080fd5b50565b60008135905061164d81611627565b92915050565b600080600080600060a0868803121561166f5761166e611433565b5b600061167d88828901611459565b955050602061168e88828901611459565b945050604061169f8882890161152a565b93505060606116b08882890161163e565b92505060806116c188828901611459565b9150509295509295909350565b600082825260208201905092915050565b7f596f7520617265206e6f7420746865206f776e65722100000000000000000000600082015250565b60006117156016836116ce565b9150611720826116df565b602082019050919050565b6000602082019050818103600083015261174481611708565b9050919050565b7f4e487b7100000000000000000000000000000000000000000000000000000000600052604160045260246000fd5b6000819050919050565b6000819050919050565b60006117a96117a461179f8461177a565b611784565b611438565b9050919050565b6117b98161178e565b82525050565b7f476f206261622100000000000000000000000000000000000000000000000000600082015250565b60006117f56007836116ce565b9150611800826117bf565b602082019050919050565b600060408201905061182060008301846117b0565b8181036020830152611831816117e8565b905092915050565b7f4e487b7100000000000000000000000000000000000000000000000000000000600052603260045260246000fd5b600063ffffffff82169050919050565b61188181611868565b82525050565b600060408201905061189c6000830185611878565b6118a960208301846115fd565b9392505050565b600081519050919050565b600082825260208201905092915050565b6000819050602082019050919050565b6118e581611501565b82525050565b600081519050919050565b600082825260208201905092915050565b60005b8381101561192557808201518184015260208101905061190a565b60008484015250505050565b6000601f19601f8301169050919050565b600061194d826118eb565b61195781856118f6565b9350611967818560208601611907565b61197081611931565b840191505092915050565b600060408301600083015161199360008601826118dc565b50602083015184820360208601526119ab8282611942565b9150508091505092915050565b60006119c4838361197b565b905092915050565b6000602082019050919050565b60006119e4826118b0565b6119ee81856118bb565b935083602082028501611a00856118cc565b8060005b85811015611a3c5784840389528151611a1d85826119b8565b9450611a28836119cc565b925060208a01995050600181019050611a04565b50829750879550505050505092915050565b6000604082019050611a636000830185611878565b8181036020830152611a7581846119d9565b90509392505050565b6000819050919050565b600060ff82169050919050565b6000611ab0611aab611aa684611a7e565b611784565b611a88565b9050919050565b611ac081611a95565b82525050565b6000604082019050611adb600083018561149b565b611ae86020830184611ab7565b9392505050565b6000611b0a611b05611b0084611a7e565b611784565b611438565b9050919050565b611b1a81611aef565b82525050565b6000604082019050611b35600083018561149b565b611b426020830184611b11565b9392505050565b6000819050919050565b6000611b6e611b69611b6484611b49565b611784565b611a88565b9050919050565b611b7e81611b53565b82525050565b6000604082019050611b99600083018561149b565b611ba66020830184611b75565b9392505050565b6000611bc8611bc3611bbe84611b49565b611784565b611438565b9050919050565b611bd881611bad565b82525050565b6000604082019050611bf3600083018561149b565b611c006020830184611bcf565b9392505050565b7f4e487b7100000000000000000000000000000000000000000000000000000000600052601160045260246000fd5b6000611c4182611438565b91507fffffffffffffffffffffffffffffffffffffffffffffffffffffffffffffffff8203611c7357611c72611c07565b5b600182019050919050565b6000819050919050565b6000611ca3611c9e611c9984611c7e565b611784565b611438565b9050919050565b611cb381611c88565b82525050565b6000604082019050611cce6000830185611caa565b611cdb6020830184611b11565b9392505050565b7f596f75277265206e6f742070617274206f6620746865206f726720746f20636160008201527f737420766f746521000000000000000000000000000000000000000000000000602082015250565b6000611d3e6028836116ce565b9150611d4982611ce2565b604082019050919050565b60006020820190508181036000830152611d6d81611d31565b9050919050565b7f596f7520617265207375626d697474696e67206120706173742070726f706f7360008201527f616c000000000000000000000000000000000000000000000000000000000000602082015250565b6000611dd06022836116ce565b9150611ddb82611d74565b604082019050919050565b60006020820190508181036000830152611dff81611dc3565b9050919050565b7f596f752063616e6e6f7420646f75626c6520766f746521000000000000000000600082015250565b6000611e3c6017836116ce565b9150611e4782611e06565b602082019050919050565b60006020820190508181036000830152611e6b81611e2f565b9050919050565b6000611e7d82611438565b9150611e8883611438565b9250828201905080821115611ea057611e9f611c07565b5b9291505056fea2646970667358221220a7d369bbce3012ff52d9c4fdb8670fec0c837429051ea60a32dd3d353c4d6bac64736f6c63430008110033",
  "linkReferences": {},
  "deployedLinkReferences": {}
}