{
  "_format": "hh-sol-artifact-1",
  "contractName": "OwnableMulticall",
  "sourceName": "contracts/OwnableMulticall.sol",
  "abi": [
    {
      "inputs": [],
      "stateMutability": "nonpayable",
      "type": "constructor"
    },
    {
      "anonymous": false,
      "inputs": [
        {
          "indexed": false,
          "internalType": "uint8",
          "name": "version",
          "type": "uint8"
        }
      ],
      "name": "Initialized",
      "type": "event"
    },
    {
      "anonymous": false,
      "inputs": [
        {
          "indexed": true,
          "internalType": "address",
          "name": "previousOwner",
          "type": "address"
        },
        {
          "indexed": true,
          "internalType": "address",
          "name": "newOwner",
          "type": "address"
        }
      ],
      "name": "OwnershipTransferred",
      "type": "event"
    },
    {
      "inputs": [],
      "name": "owner",
      "outputs": [
        {
          "internalType": "address",
          "name": "",
          "type": "address"
        }
      ],
      "stateMutability": "view",
      "type": "function"
    },
    {
      "inputs": [
        {
          "components": [
            {
              "internalType": "address",
              "name": "to",
              "type": "address"
            },
            {
              "internalType": "bytes",
              "name": "data",
              "type": "bytes"
            }
          ],
          "internalType": "struct Call[]",
          "name": "calls",
          "type": "tuple[]"
        }
      ],
      "name": "proxyCalls",
      "outputs": [],
      "stateMutability": "nonpayable",
      "type": "function"
    },
    {
      "inputs": [],
      "name": "renounceOwnership",
      "outputs": [],
      "stateMutability": "nonpayable",
      "type": "function"
    },
    {
      "inputs": [
        {
          "internalType": "address",
          "name": "newOwner",
          "type": "address"
        }
      ],
      "name": "transferOwnership",
      "outputs": [],
      "stateMutability": "nonpayable",
      "type": "function"
    }
  ],
  "bytecode": "0x608060405234801561001057600080fd5b506100203361002560201b60201c565b6100eb565b6000603360009054906101000a900473ffffffffffffffffffffffffffffffffffffffff16905081603360006101000a81548173ffffffffffffffffffffffffffffffffffffffff021916908373ffffffffffffffffffffffffffffffffffffffff1602179055508173ffffffffffffffffffffffffffffffffffffffff168173ffffffffffffffffffffffffffffffffffffffff167f8be0079c531659141344cd1fd0a4f28419497f9722a3daafe3b4186f6b6457e060405160405180910390a35050565b610818806100fa6000396000f3fe608060405234801561001057600080fd5b506004361061004c5760003560e01c8063715018a61461005157806388b755141461005b5780638da5cb5b14610077578063f2fde38b14610095575b600080fd5b6100596100b1565b005b61007560048036038101906100709190610443565b6100c5565b005b61007f6101db565b60405161008c91906104d1565b60405180910390f35b6100af60048036038101906100aa9190610518565b610205565b005b6100b9610288565b6100c36000610306565b565b6100cd610288565b60005b828290508110156101d6576000808484848181106100f1576100f0610545565b5b90506020028101906101039190610583565b60000160208101906101159190610518565b73ffffffffffffffffffffffffffffffffffffffff1685858581811061013e5761013d610545565b5b90506020028101906101509190610583565b806020019061015f91906105ab565b60405161016d92919061064d565b6000604051808303816000865af19150503d80600081146101aa576040519150601f19603f3d011682016040523d82523d6000602084013e6101af565b606091505b5091509150816101c0578060208201fd5b50506001816101cf919061069f565b90506100d0565b505050565b6000603360009054906101000a900473ffffffffffffffffffffffffffffffffffffffff16905090565b61020d610288565b600073ffffffffffffffffffffffffffffffffffffffff168173ffffffffffffffffffffffffffffffffffffffff160361027c576040517f08c379a000000000000000000000000000000000000000000000000000000000815260040161027390610756565b60405180910390fd5b61028581610306565b50565b6102906103cc565b73ffffffffffffffffffffffffffffffffffffffff166102ae6101db565b73ffffffffffffffffffffffffffffffffffffffff1614610304576040517f08c379a00000000000000000000000000000000000000000000000000000000081526004016102fb906107c2565b60405180910390fd5b565b6000603360009054906101000a900473ffffffffffffffffffffffffffffffffffffffff16905081603360006101000a81548173ffffffffffffffffffffffffffffffffffffffff021916908373ffffffffffffffffffffffffffffffffffffffff1602179055508173ffffffffffffffffffffffffffffffffffffffff168173ffffffffffffffffffffffffffffffffffffffff167f8be0079c531659141344cd1fd0a4f28419497f9722a3daafe3b4186f6b6457e060405160405180910390a35050565b600033905090565b600080fd5b600080fd5b600080fd5b600080fd5b600080fd5b60008083601f840112610403576104026103de565b5b8235905067ffffffffffffffff8111156104205761041f6103e3565b5b60208301915083602082028301111561043c5761043b6103e8565b5b9250929050565b6000806020838503121561045a576104596103d4565b5b600083013567ffffffffffffffff811115610478576104776103d9565b5b610484858286016103ed565b92509250509250929050565b600073ffffffffffffffffffffffffffffffffffffffff82169050919050565b60006104bb82610490565b9050919050565b6104cb816104b0565b82525050565b60006020820190506104e660008301846104c2565b92915050565b6104f5816104b0565b811461050057600080fd5b50565b600081359050610512816104ec565b92915050565b60006020828403121561052e5761052d6103d4565b5b600061053c84828501610503565b91505092915050565b7f4e487b7100000000000000000000000000000000000000000000000000000000600052603260045260246000fd5b600080fd5b600080fd5b600080fd5b60008235600160400383360303811261059f5761059e610574565b5b80830191505092915050565b600080833560016020038436030381126105c8576105c7610574565b5b80840192508235915067ffffffffffffffff8211156105ea576105e9610579565b5b6020830192506001820236038313156106065761060561057e565b5b509250929050565b600081905092915050565b82818337600083830152505050565b6000610634838561060e565b9350610641838584610619565b82840190509392505050565b600061065a828486610628565b91508190509392505050565b6000819050919050565b7f4e487b7100000000000000000000000000000000000000000000000000000000600052601160045260246000fd5b60006106aa82610666565b91506106b583610666565b92508282019050808211156106cd576106cc610670565b5b92915050565b600082825260208201905092915050565b7f4f776e61626c653a206e6577206f776e657220697320746865207a65726f206160008201527f6464726573730000000000000000000000000000000000000000000000000000602082015250565b60006107406026836106d3565b915061074b826106e4565b604082019050919050565b6000602082019050818103600083015261076f81610733565b9050919050565b7f4f776e61626c653a2063616c6c6572206973206e6f7420746865206f776e6572600082015250565b60006107ac6020836106d3565b91506107b782610776565b602082019050919050565b600060208201905081810360008301526107db8161079f565b905091905056fea26469706673582212209c929a50c98a69ca62cdf05fe8e6ebfb0a8122076980d6ecad8346739f2b5f5864736f6c63430008110033",
  "linkReferences": {},
  "deployedLinkReferences": {}
}